{"contracts/TemperatureStorage.sol":{"TemperaturaStorage":{"abi":[{"inputs":[{"internalType":"string","name":"timestamp","type":"string"}],"name":"retrieve","outputs":[{"internalType":"string","name":"","type":"string"}],"stateMutability":"view","type":"function"},{"inputs":[{"internalType":"string","name":"timestamp","type":"string"},{"internalType":"string","name":"temperatura","type":"string"}],"name":"store","outputs":[],"stateMutability":"nonpayable","type":"function"},{"inputs":[{"internalType":"string","name":"","type":"string"}],"name":"temperatureData","outputs":[{"internalType":"string","name":"","type":"string"}],"stateMutability":"view","type":"function"}],"evm":{"bytecode":{"linkReferences":{},"object":"608060405234801561001057600080fd5b50610718806100206000396000f3fe608060405234801561001057600080fd5b50600436106100415760003560e01c806364cc732714610046578063cdf2c16c14610076578063f641090c146100a6575b600080fd5b610060600480360381019061005b91906104c3565b6100c2565b60405161006d9190610594565b60405180910390f35b610090600480360381019061008b91906104c3565b6101ae565b60405161009d9190610594565b60405180910390f35b6100c060048036038101906100bb91906105b6565b610264565b005b60606100d867566aa6c36822244260c01b6102c3565b6100ec670eeea6d0d8491bbd60c01b6102c3565b61010067b513a46bb2223ca560c01b6102c3565b600082604051610110919061066a565b90815260200160405180910390208054610129906106b0565b80601f0160208091040260200160405190810160405280929190818152602001828054610155906106b0565b80156101a25780601f10610177576101008083540402835291602001916101a2565b820191906000526020600020905b81548152906001019060200180831161018557829003601f168201915b50505050509050919050565b60008180516020810182018051848252602083016020850120818352809550505050505060009150905080546101e3906106b0565b80601f016020809104026020016040519081016040528092919081815260200182805461020f906106b0565b801561025c5780601f106102315761010080835404028352916020019161025c565b820191906000526020600020905b81548152906001019060200180831161023f57829003601f168201915b505050505081565b61027867f982eb6b7278ba6260c01b6102c3565b61028c6706891b7c173404fb60c01b6102c3565b8060008360405161029d919061066a565b908152602001604051809103902090805190602001906102be9291906102c6565b505050565b50565b8280546102d2906106b0565b90600052602060002090601f0160209004810192826102f4576000855561033b565b82601f1061030d57805160ff191683800117855561033b565b8280016001018555821561033b579182015b8281111561033a57825182559160200191906001019061031f565b5b509050610348919061034c565b5090565b5b8082111561036557600081600090555060010161034d565b5090565b6000604051905090565b600080fd5b600080fd5b600080fd5b600080fd5b6000601f19601f8301169050919050565b7f4e487b7100000000000000000000000000000000000000000000000000000000600052604160045260246000fd5b6103d082610387565b810181811067ffffffffffffffff821117156103ef576103ee610398565b5b80604052505050565b6000610402610369565b905061040e82826103c7565b919050565b600067ffffffffffffffff82111561042e5761042d610398565b5b61043782610387565b9050602081019050919050565b82818337600083830152505050565b600061046661046184610413565b6103f8565b90508281526020810184848401111561048257610481610382565b5b61048d848285610444565b509392505050565b600082601f8301126104aa576104a961037d565b5b81356104ba848260208601610453565b91505092915050565b6000602082840312156104d9576104d8610373565b5b600082013567ffffffffffffffff8111156104f7576104f6610378565b5b61050384828501610495565b91505092915050565b600081519050919050565b600082825260208201905092915050565b60005b8381101561054657808201518184015260208101905061052b565b83811115610555576000848401525b50505050565b60006105668261050c565b6105708185610517565b9350610580818560208601610528565b61058981610387565b840191505092915050565b600060208201905081810360008301526105ae818461055b565b905092915050565b600080604083850312156105cd576105cc610373565b5b600083013567ffffffffffffffff8111156105eb576105ea610378565b5b6105f785828601610495565b925050602083013567ffffffffffffffff81111561061857610617610378565b5b61062485828601610495565b9150509250929050565b600081905092915050565b60006106448261050c565b61064e818561062e565b935061065e818560208601610528565b80840191505092915050565b60006106768284610639565b915081905092915050565b7f4e487b7100000000000000000000000000000000000000000000000000000000600052602260045260246000fd5b600060028204905060018216806106c857607f821691505b602082108114156106dc576106db610681565b5b5091905056fea26469706673582212206a8f74eceb3871c39ccd02e3e22ff71faf6f24303fdcc86f8db6263bf6eb895564736f6c63430008080033","opcodes":"PUSH1 0x80 PUSH1 0x40 MSTORE CALLVALUE DUP1 ISZERO PUSH2 0x10 JUMPI PUSH1 0x0 DUP1 REVERT JUMPDEST POP PUSH2 0x718 DUP1 PUSH2 0x20 PUSH1 0x0 CODECOPY PUSH1 0x0 RETURN INVALID PUSH1 0x80 PUSH1 0x40 MSTORE CALLVALUE DUP1 ISZERO PUSH2 0x10 JUMPI PUSH1 0x0 DUP1 REVERT JUMPDEST POP PUSH1 0x4 CALLDATASIZE LT PUSH2 0x41 JUMPI PUSH1 0x0 CALLDATALOAD PUSH1 0xE0 SHR DUP1 PUSH4 0x64CC7327 EQ PUSH2 0x46 JUMPI DUP1 PUSH4 0xCDF2C16C EQ PUSH2 0x76 JUMPI DUP1 PUSH4 0xF641090C EQ PUSH2 0xA6 JUMPI JUMPDEST PUSH1 0x0 DUP1 REVERT JUMPDEST PUSH2 0x60 PUSH1 0x4 DUP1 CALLDATASIZE SUB DUP2 ADD SWAP1 PUSH2 0x5B SWAP2 SWAP1 PUSH2 0x4C3 JUMP JUMPDEST PUSH2 0xC2 JUMP JUMPDEST PUSH1 0x40 MLOAD PUSH2 0x6D SWAP2 SWAP1 PUSH2 0x594 JUMP JUMPDEST PUSH1 0x40 MLOAD DUP1 SWAP2 SUB SWAP1 RETURN JUMPDEST PUSH2 0x90 PUSH1 0x4 DUP1 CALLDATASIZE SUB DUP2 ADD SWAP1 PUSH2 0x8B SWAP2 SWAP1 PUSH2 0x4C3 JUMP JUMPDEST PUSH2 0x1AE JUMP JUMPDEST PUSH1 0x40 MLOAD PUSH2 0x9D SWAP2 SWAP1 PUSH2 0x594 JUMP JUMPDEST PUSH1 0x40 MLOAD DUP1 SWAP2 SUB SWAP1 RETURN JUMPDEST PUSH2 0xC0 PUSH1 0x4 DUP1 CALLDATASIZE SUB DUP2 ADD SWAP1 PUSH2 0xBB SWAP2 SWAP1 PUSH2 0x5B6 JUMP JUMPDEST PUSH2 0x264 JUMP JUMPDEST STOP JUMPDEST PUSH1 0x60 PUSH2 0xD8 PUSH8 0x566AA6C368222442 PUSH1 0xC0 SHL PUSH2 0x2C3 JUMP JUMPDEST PUSH2 0xEC PUSH8 0xEEEA6D0D8491BBD PUSH1 0xC0 SHL PUSH2 0x2C3 JUMP JUMPDEST PUSH2 0x100 PUSH8 0xB513A46BB2223CA5 PUSH1 0xC0 SHL PUSH2 0x2C3 JUMP JUMPDEST PUSH1 0x0 DUP3 PUSH1 0x40 MLOAD PUSH2 0x110 SWAP2 SWAP1 PUSH2 0x66A JUMP JUMPDEST SWAP1 DUP2 MSTORE PUSH1 0x20 ADD PUSH1 0x40 MLOAD DUP1 SWAP2 SUB SWAP1 KECCAK256 DUP1 SLOAD PUSH2 0x129 SWAP1 PUSH2 0x6B0 JUMP JUMPDEST DUP1 PUSH1 0x1F ADD PUSH1 0x20 DUP1 SWAP2 DIV MUL PUSH1 0x20 ADD PUSH1 0x40 MLOAD SWAP1 DUP2 ADD PUSH1 0x40 MSTORE DUP1 SWAP3 SWAP2 SWAP1 DUP2 DUP2 MSTORE PUSH1 0x20 ADD DUP3 DUP1 SLOAD PUSH2 0x155 SWAP1 PUSH2 0x6B0 JUMP JUMPDEST DUP1 ISZERO PUSH2 0x1A2 JUMPI DUP1 PUSH1 0x1F LT PUSH2 0x177 JUMPI PUSH2 0x100 DUP1 DUP4 SLOAD DIV MUL DUP4 MSTORE SWAP2 PUSH1 0x20 ADD SWAP2 PUSH2 0x1A2 JUMP JUMPDEST DUP3 ADD SWAP2 SWAP1 PUSH1 0x0 MSTORE PUSH1 0x20 PUSH1 0x0 KECCAK256 SWAP1 JUMPDEST DUP2 SLOAD DUP2 MSTORE SWAP1 PUSH1 0x1 ADD SWAP1 PUSH1 0x20 ADD DUP1 DUP4 GT PUSH2 0x185 JUMPI DUP3 SWAP1 SUB PUSH1 0x1F AND DUP3 ADD SWAP2 JUMPDEST POP POP POP POP POP SWAP1 POP SWAP2 SWAP1 POP JUMP JUMPDEST PUSH1 0x0 DUP2 DUP1 MLOAD PUSH1 0x20 DUP2 ADD DUP3 ADD DUP1 MLOAD DUP5 DUP3 MSTORE PUSH1 0x20 DUP4 ADD PUSH1 0x20 DUP6 ADD KECCAK256 DUP2 DUP4 MSTORE DUP1 SWAP6 POP POP POP POP POP POP PUSH1 0x0 SWAP2 POP SWAP1 POP DUP1 SLOAD PUSH2 0x1E3 SWAP1 PUSH2 0x6B0 JUMP JUMPDEST DUP1 PUSH1 0x1F ADD PUSH1 0x20 DUP1 SWAP2 DIV MUL PUSH1 0x20 ADD PUSH1 0x40 MLOAD SWAP1 DUP2 ADD PUSH1 0x40 MSTORE DUP1 SWAP3 SWAP2 SWAP1 DUP2 DUP2 MSTORE PUSH1 0x20 ADD DUP3 DUP1 SLOAD PUSH2 0x20F SWAP1 PUSH2 0x6B0 JUMP JUMPDEST DUP1 ISZERO PUSH2 0x25C JUMPI DUP1 PUSH1 0x1F LT PUSH2 0x231 JUMPI PUSH2 0x100 DUP1 DUP4 SLOAD DIV MUL DUP4 MSTORE SWAP2 PUSH1 0x20 ADD SWAP2 PUSH2 0x25C JUMP JUMPDEST DUP3 ADD SWAP2 SWAP1 PUSH1 0x0 MSTORE PUSH1 0x20 PUSH1 0x0 KECCAK256 SWAP1 JUMPDEST DUP2 SLOAD DUP2 MSTORE SWAP1 PUSH1 0x1 ADD SWAP1 PUSH1 0x20 ADD DUP1 DUP4 GT PUSH2 0x23F JUMPI DUP3 SWAP1 SUB PUSH1 0x1F AND DUP3 ADD SWAP2 JUMPDEST POP POP POP POP POP DUP2 JUMP JUMPDEST PUSH2 0x278 PUSH8 0xF982EB6B7278BA62 PUSH1 0xC0 SHL PUSH2 0x2C3 JUMP JUMPDEST PUSH2 0x28C PUSH8 0x6891B7C173404FB PUSH1 0xC0 SHL PUSH2 0x2C3 JUMP JUMPDEST DUP1 PUSH1 0x0 DUP4 PUSH1 0x40 MLOAD PUSH2 0x29D SWAP2 SWAP1 PUSH2 0x66A JUMP JUMPDEST SWAP1 DUP2 MSTORE PUSH1 0x20 ADD PUSH1 0x40 MLOAD DUP1 SWAP2 SUB SWAP1 KECCAK256 SWAP1 DUP1 MLOAD SWAP1 PUSH1 0x20 ADD SWAP1 PUSH2 0x2BE SWAP3 SWAP2 SWAP1 PUSH2 0x2C6 JUMP JUMPDEST POP POP POP JUMP JUMPDEST POP JUMP JUMPDEST DUP3 DUP1 SLOAD PUSH2 0x2D2 SWAP1 PUSH2 0x6B0 JUMP JUMPDEST SWAP1 PUSH1 0x0 MSTORE PUSH1 0x20 PUSH1 0x0 KECCAK256 SWAP1 PUSH1 0x1F ADD PUSH1 0x20 SWAP1 DIV DUP2 ADD SWAP3 DUP3 PUSH2 0x2F4 JUMPI PUSH1 0x0 DUP6 SSTORE PUSH2 0x33B JUMP JUMPDEST DUP3 PUSH1 0x1F LT PUSH2 0x30D JUMPI DUP1 MLOAD PUSH1 0xFF NOT AND DUP4 DUP1 ADD OR DUP6 SSTORE PUSH2 0x33B JUMP JUMPDEST DUP3 DUP1 ADD PUSH1 0x1 ADD DUP6 SSTORE DUP3 ISZERO PUSH2 0x33B JUMPI SWAP2 DUP3 ADD JUMPDEST DUP3 DUP2 GT ISZERO PUSH2 0x33A JUMPI DUP3 MLOAD DUP3 SSTORE SWAP2 PUSH1 0x20 ADD SWAP2 SWAP1 PUSH1 0x1 ADD SWAP1 PUSH2 0x31F JUMP JUMPDEST JUMPDEST POP SWAP1 POP PUSH2 0x348 SWAP2 SWAP1 PUSH2 0x34C JUMP JUMPDEST POP SWAP1 JUMP JUMPDEST JUMPDEST DUP1 DUP3 GT ISZERO PUSH2 0x365 JUMPI PUSH1 0x0 DUP2 PUSH1 0x0 SWAP1 SSTORE POP PUSH1 0x1 ADD PUSH2 0x34D JUMP JUMPDEST POP SWAP1 JUMP JUMPDEST PUSH1 0x0 PUSH1 0x40 MLOAD SWAP1 POP SWAP1 JUMP JUMPDEST PUSH1 0x0 DUP1 REVERT JUMPDEST PUSH1 0x0 DUP1 REVERT JUMPDEST PUSH1 0x0 DUP1 REVERT JUMPDEST PUSH1 0x0 DUP1 REVERT JUMPDEST PUSH1 0x0 PUSH1 0x1F NOT PUSH1 0x1F DUP4 ADD AND SWAP1 POP SWAP2 SWAP1 POP JUMP JUMPDEST PUSH32 0x4E487B7100000000000000000000000000000000000000000000000000000000 PUSH1 0x0 MSTORE PUSH1 0x41 PUSH1 0x4 MSTORE PUSH1 0x24 PUSH1 0x0 REVERT JUMPDEST PUSH2 0x3D0 DUP3 PUSH2 0x387 JUMP JUMPDEST DUP2 ADD DUP2 DUP2 LT PUSH8 0xFFFFFFFFFFFFFFFF DUP3 GT OR ISZERO PUSH2 0x3EF JUMPI PUSH2 0x3EE PUSH2 0x398 JUMP JUMPDEST JUMPDEST DUP1 PUSH1 0x40 MSTORE POP POP POP JUMP JUMPDEST PUSH1 0x0 PUSH2 0x402 PUSH2 0x369 JUMP JUMPDEST SWAP1 POP PUSH2 0x40E DUP3 DUP3 PUSH2 0x3C7 JUMP JUMPDEST SWAP2 SWAP1 POP JUMP JUMPDEST PUSH1 0x0 PUSH8 0xFFFFFFFFFFFFFFFF DUP3 GT ISZERO PUSH2 0x42E JUMPI PUSH2 0x42D PUSH2 0x398 JUMP JUMPDEST JUMPDEST PUSH2 0x437 DUP3 PUSH2 0x387 JUMP JUMPDEST SWAP1 POP PUSH1 0x20 DUP2 ADD SWAP1 POP SWAP2 SWAP1 POP JUMP JUMPDEST DUP3 DUP2 DUP4 CALLDATACOPY PUSH1 0x0 DUP4 DUP4 ADD MSTORE POP POP POP JUMP JUMPDEST PUSH1 0x0 PUSH2 0x466 PUSH2 0x461 DUP5 PUSH2 0x413 JUMP JUMPDEST PUSH2 0x3F8 JUMP JUMPDEST SWAP1 POP DUP3 DUP2 MSTORE PUSH1 0x20 DUP2 ADD DUP5 DUP5 DUP5 ADD GT ISZERO PUSH2 0x482 JUMPI PUSH2 0x481 PUSH2 0x382 JUMP JUMPDEST JUMPDEST PUSH2 0x48D DUP5 DUP3 DUP6 PUSH2 0x444 JUMP JUMPDEST POP SWAP4 SWAP3 POP POP POP JUMP JUMPDEST PUSH1 0x0 DUP3 PUSH1 0x1F DUP4 ADD SLT PUSH2 0x4AA JUMPI PUSH2 0x4A9 PUSH2 0x37D JUMP JUMPDEST JUMPDEST DUP2 CALLDATALOAD PUSH2 0x4BA DUP5 DUP3 PUSH1 0x20 DUP7 ADD PUSH2 0x453 JUMP JUMPDEST SWAP2 POP POP SWAP3 SWAP2 POP POP JUMP JUMPDEST PUSH1 0x0 PUSH1 0x20 DUP3 DUP5 SUB SLT ISZERO PUSH2 0x4D9 JUMPI PUSH2 0x4D8 PUSH2 0x373 JUMP JUMPDEST JUMPDEST PUSH1 0x0 DUP3 ADD CALLDATALOAD PUSH8 0xFFFFFFFFFFFFFFFF DUP2 GT ISZERO PUSH2 0x4F7 JUMPI PUSH2 0x4F6 PUSH2 0x378 JUMP JUMPDEST JUMPDEST PUSH2 0x503 DUP5 DUP3 DUP6 ADD PUSH2 0x495 JUMP JUMPDEST SWAP2 POP POP SWAP3 SWAP2 POP POP JUMP JUMPDEST PUSH1 0x0 DUP2 MLOAD SWAP1 POP SWAP2 SWAP1 POP JUMP JUMPDEST PUSH1 0x0 DUP3 DUP3 MSTORE PUSH1 0x20 DUP3 ADD SWAP1 POP SWAP3 SWAP2 POP POP JUMP JUMPDEST PUSH1 0x0 JUMPDEST DUP4 DUP2 LT ISZERO PUSH2 0x546 JUMPI DUP1 DUP3 ADD MLOAD DUP2 DUP5 ADD MSTORE PUSH1 0x20 DUP2 ADD SWAP1 POP PUSH2 0x52B JUMP JUMPDEST DUP4 DUP2 GT ISZERO PUSH2 0x555 JUMPI PUSH1 0x0 DUP5 DUP5 ADD MSTORE JUMPDEST POP POP POP POP JUMP JUMPDEST PUSH1 0x0 PUSH2 0x566 DUP3 PUSH2 0x50C JUMP JUMPDEST PUSH2 0x570 DUP2 DUP6 PUSH2 0x517 JUMP JUMPDEST SWAP4 POP PUSH2 0x580 DUP2 DUP6 PUSH1 0x20 DUP7 ADD PUSH2 0x528 JUMP JUMPDEST PUSH2 0x589 DUP2 PUSH2 0x387 JUMP JUMPDEST DUP5 ADD SWAP2 POP POP SWAP3 SWAP2 POP POP JUMP JUMPDEST PUSH1 0x0 PUSH1 0x20 DUP3 ADD SWAP1 POP DUP2 DUP2 SUB PUSH1 0x0 DUP4 ADD MSTORE PUSH2 0x5AE DUP2 DUP5 PUSH2 0x55B JUMP JUMPDEST SWAP1 POP SWAP3 SWAP2 POP POP JUMP JUMPDEST PUSH1 0x0 DUP1 PUSH1 0x40 DUP4 DUP6 SUB SLT ISZERO PUSH2 0x5CD JUMPI PUSH2 0x5CC PUSH2 0x373 JUMP JUMPDEST JUMPDEST PUSH1 0x0 DUP4 ADD CALLDATALOAD PUSH8 0xFFFFFFFFFFFFFFFF DUP2 GT ISZERO PUSH2 0x5EB JUMPI PUSH2 0x5EA PUSH2 0x378 JUMP JUMPDEST JUMPDEST PUSH2 0x5F7 DUP6 DUP3 DUP7 ADD PUSH2 0x495 JUMP JUMPDEST SWAP3 POP POP PUSH1 0x20 DUP4 ADD CALLDATALOAD PUSH8 0xFFFFFFFFFFFFFFFF DUP2 GT ISZERO PUSH2 0x618 JUMPI PUSH2 0x617 PUSH2 0x378 JUMP JUMPDEST JUMPDEST PUSH2 0x624 DUP6 DUP3 DUP7 ADD PUSH2 0x495 JUMP JUMPDEST SWAP2 POP POP SWAP3 POP SWAP3 SWAP1 POP JUMP JUMPDEST PUSH1 0x0 DUP2 SWAP1 POP SWAP3 SWAP2 POP POP JUMP JUMPDEST PUSH1 0x0 PUSH2 0x644 DUP3 PUSH2 0x50C JUMP JUMPDEST PUSH2 0x64E DUP2 DUP6 PUSH2 0x62E JUMP JUMPDEST SWAP4 POP PUSH2 0x65E DUP2 DUP6 PUSH1 0x20 DUP7 ADD PUSH2 0x528 JUMP JUMPDEST DUP1 DUP5 ADD SWAP2 POP POP SWAP3 SWAP2 POP POP JUMP JUMPDEST PUSH1 0x0 PUSH2 0x676 DUP3 DUP5 PUSH2 0x639 JUMP JUMPDEST SWAP2 POP DUP2 SWAP1 POP SWAP3 SWAP2 POP POP JUMP JUMPDEST PUSH32 0x4E487B7100000000000000000000000000000000000000000000000000000000 PUSH1 0x0 MSTORE PUSH1 0x22 PUSH1 0x4 MSTORE PUSH1 0x24 PUSH1 0x0 REVERT JUMPDEST PUSH1 0x0 PUSH1 0x2 DUP3 DIV SWAP1 POP PUSH1 0x1 DUP3 AND DUP1 PUSH2 0x6C8 JUMPI PUSH1 0x7F DUP3 AND SWAP2 POP JUMPDEST PUSH1 0x20 DUP3 LT DUP2 EQ ISZERO PUSH2 0x6DC JUMPI PUSH2 0x6DB PUSH2 0x681 JUMP JUMPDEST JUMPDEST POP SWAP2 SWAP1 POP JUMP INVALID LOG2 PUSH5 0x6970667358 0x22 SLT KECCAK256 PUSH11 0x8F74ECEB3871C39CCD02E3 0xE2 0x2F 0xF7 0x1F 0xAF PUSH16 0x24303FDCC86F8DB6263BF6EB89556473 PUSH16 0x6C634300080800330000000000000000 "},"methodIdentifiers":{"retrieve(string)":"64cc7327","store(string,string)":"f641090c","temperatureData(string)":"cdf2c16c"}}}}}