{
  "_format": "hh-sol-artifact-1",
  "contractName": "TemperaturaStorage",
  "sourceName": "contracts/TemperatureStorage.sol",
  "abi": [
    {
      "inputs": [
        {
          "internalType": "string",
          "name": "timestamp",
          "type": "string"
        }
      ],
      "name": "retrieve",
      "outputs": [
        {
          "internalType": "string",
          "name": "",
          "type": "string"
        }
      ],
      "stateMutability": "view",
      "type": "function"
    },
    {
      "inputs": [
        {
          "internalType": "string",
          "name": "timestamp",
          "type": "string"
        },
        {
          "internalType": "string",
          "name": "temperatura",
          "type": "string"
        }
      ],
      "name": "store",
      "outputs": [],
      "stateMutability": "nonpayable",
      "type": "function"
    },
    {
      "inputs": [
        {
          "internalType": "string",
          "name": "",
          "type": "string"
        }
      ],
      "name": "temperatureData",
      "outputs": [
        {
          "internalType": "string",
          "name": "",
          "type": "string"
        }
      ],
      "stateMutability": "view",
      "type": "function"
    }
  ],
  "bytecode": "0x608060405234801561001057600080fd5b50610718806100206000396000f3fe608060405234801561001057600080fd5b50600436106100415760003560e01c806364cc732714610046578063cdf2c16c14610076578063f641090c146100a6575b600080fd5b610060600480360381019061005b91906104c3565b6100c2565b60405161006d9190610594565b60405180910390f35b610090600480360381019061008b91906104c3565b6101ae565b60405161009d9190610594565b60405180910390f35b6100c060048036038101906100bb91906105b6565b610264565b005b60606100d867566aa6c36822244260c01b6102c3565b6100ec670eeea6d0d8491bbd60c01b6102c3565b61010067b513a46bb2223ca560c01b6102c3565b600082604051610110919061066a565b90815260200160405180910390208054610129906106b0565b80601f0160208091040260200160405190810160405280929190818152602001828054610155906106b0565b80156101a25780601f10610177576101008083540402835291602001916101a2565b820191906000526020600020905b81548152906001019060200180831161018557829003601f168201915b50505050509050919050565b60008180516020810182018051848252602083016020850120818352809550505050505060009150905080546101e3906106b0565b80601f016020809104026020016040519081016040528092919081815260200182805461020f906106b0565b801561025c5780601f106102315761010080835404028352916020019161025c565b820191906000526020600020905b81548152906001019060200180831161023f57829003601f168201915b505050505081565b61027867f982eb6b7278ba6260c01b6102c3565b61028c6706891b7c173404fb60c01b6102c3565b8060008360405161029d919061066a565b908152602001604051809103902090805190602001906102be9291906102c6565b505050565b50565b8280546102d2906106b0565b90600052602060002090601f0160209004810192826102f4576000855561033b565b82601f1061030d57805160ff191683800117855561033b565b8280016001018555821561033b579182015b8281111561033a57825182559160200191906001019061031f565b5b509050610348919061034c565b5090565b5b8082111561036557600081600090555060010161034d565b5090565b6000604051905090565b600080fd5b600080fd5b600080fd5b600080fd5b6000601f19601f8301169050919050565b7f4e487b7100000000000000000000000000000000000000000000000000000000600052604160045260246000fd5b6103d082610387565b810181811067ffffffffffffffff821117156103ef576103ee610398565b5b80604052505050565b6000610402610369565b905061040e82826103c7565b919050565b600067ffffffffffffffff82111561042e5761042d610398565b5b61043782610387565b9050602081019050919050565b82818337600083830152505050565b600061046661046184610413565b6103f8565b90508281526020810184848401111561048257610481610382565b5b61048d848285610444565b509392505050565b600082601f8301126104aa576104a961037d565b5b81356104ba848260208601610453565b91505092915050565b6000602082840312156104d9576104d8610373565b5b600082013567ffffffffffffffff8111156104f7576104f6610378565b5b61050384828501610495565b91505092915050565b600081519050919050565b600082825260208201905092915050565b60005b8381101561054657808201518184015260208101905061052b565b83811115610555576000848401525b50505050565b60006105668261050c565b6105708185610517565b9350610580818560208601610528565b61058981610387565b840191505092915050565b600060208201905081810360008301526105ae818461055b565b905092915050565b600080604083850312156105cd576105cc610373565b5b600083013567ffffffffffffffff8111156105eb576105ea610378565b5b6105f785828601610495565b925050602083013567ffffffffffffffff81111561061857610617610378565b5b61062485828601610495565b9150509250929050565b600081905092915050565b60006106448261050c565b61064e818561062e565b935061065e818560208601610528565b80840191505092915050565b60006106768284610639565b915081905092915050565b7f4e487b7100000000000000000000000000000000000000000000000000000000600052602260045260246000fd5b600060028204905060018216806106c857607f821691505b602082108114156106dc576106db610681565b5b5091905056fea26469706673582212206a8f74eceb3871c39ccd02e3e22ff71faf6f24303fdcc86f8db6263bf6eb895564736f6c63430008080033",
  "linkReferences": {},
  "deployedLinkReferences": {}
}